0120240328        RBC     22202024030120240331                                                      
0209811049       0102Associated Bank NA       00000483781968G Green Bay                WI0000000    
0209811049       0123Simmons Bank             00000584701142A Pine Bluff               AR0000000    
0209811049       0155Truist Bank              00005941971868E Lumberton                NC0000000    
0209811049       0187Bank of Hope             00000490524352A Los Angeles              CA0000000    
0209811049       0211Union Bank and Trust Comp00000985535969E Lincoln                  NE0000000    
0209811049       0214M and T Trust Company    00001456729215B Buffalo                  NY0000000    
0209811049       0257Citibank NA              00022570182188H Sioux Falls              SD0000000    
0209811049       0258Tristate Capital Bank    00000499627350C Pittsburgh               PA0000000    
0209811049       0287Enterprise Bank and Trust00000781717233B Clayton                  MO0000000    
0209811049       0289East West Bank           00001616937258H Pasadena                 CA0000000    
0209811049       0305EagleBank                00000991639094G Bethesda                 MD0000000    
0209811049       0317Bank Hapoalim BM         00000495737428B New York                 NY0000000    
0209811049       0318US Bank NA               00000493574794A Cincinnati               OH0000000    
0209811049       0339Bank of Baroda           00001465625239{ New York                 NY0000000    
0209811049       0348Bremer Bank NA           00000775557408I St. Paul                 MN0000000    
0209811049       0349Synovus Bank             00000875492489C Columbus                 GA0000000    
0209811049       0392American Express National00003978789157F Sandy                    UT0000000    
0209811049       0394Umpqua Bank              00000430302122A Portland                 OR0000000    
0209811049       0396City National Bank       00106139195199D Los Angeles              CA0000000    
0209811049       0397RBC Bank (Georgia) NA    00037871750414D Raleigh                  NC0000000    
0209811049       0398SMBC MANUBANK            00000466114957G LOS ANGELES              CA0000000    
0209811049       0399Israel Discount Bank of N00001769068870{ New York                 NY0000000    
0209811049       0400First Internet Bank of In00000299986072C Fishers                  IN0000000    
0209811049       0402BankUnited               00001216428861H Miami Lakes              FL0000000    
9920240328             0013609572220                                                                
